{
  "contractName": "Roulette",
  "abi": [
    {
      "constant": false,
      "inputs": [
        {
          "name": "ethAmount",
          "type": "uint256"
        }
      ],
      "name": "withdraw",
      "outputs": [],
      "payable": false,
      "stateMutability": "nonpayable",
      "type": "function"
    },
    {
      "constant": false,
      "inputs": [],
      "name": "unpause",
      "outputs": [],
      "payable": false,
      "stateMutability": "nonpayable",
      "type": "function"
    },
    {
      "constant": true,
      "inputs": [],
      "name": "paused",
      "outputs": [
        {
          "name": "",
          "type": "bool"
        }
      ],
      "payable": false,
      "stateMutability": "view",
      "type": "function"
    },
    {
      "constant": false,
      "inputs": [],
      "name": "renounceOwnership",
      "outputs": [],
      "payable": false,
      "stateMutability": "nonpayable",
      "type": "function"
    },
    {
      "constant": false,
      "inputs": [],
      "name": "pause",
      "outputs": [],
      "payable": false,
      "stateMutability": "nonpayable",
      "type": "function"
    },
    {
      "constant": true,
      "inputs": [],
      "name": "owner",
      "outputs": [
        {
          "name": "",
          "type": "address"
        }
      ],
      "payable": false,
      "stateMutability": "view",
      "type": "function"
    },
    {
      "constant": true,
      "inputs": [],
      "name": "backedToken",
      "outputs": [
        {
          "name": "",
          "type": "address"
        }
      ],
      "payable": false,
      "stateMutability": "view",
      "type": "function"
    },
    {
      "constant": true,
      "inputs": [],
      "name": "balanceForBacking",
      "outputs": [
        {
          "name": "",
          "type": "uint256"
        }
      ],
      "payable": false,
      "stateMutability": "view",
      "type": "function"
    },
    {
      "constant": false,
      "inputs": [],
      "name": "deposit",
      "outputs": [],
      "payable": true,
      "stateMutability": "payable",
      "type": "function"
    },
    {
      "constant": false,
      "inputs": [
        {
          "name": "_newOwner",
          "type": "address"
        }
      ],
      "name": "transferOwnership",
      "outputs": [],
      "payable": false,
      "stateMutability": "nonpayable",
      "type": "function"
    },
    {
      "inputs": [
        {
          "name": "roscoinAddress",
          "type": "address"
        }
      ],
      "payable": false,
      "stateMutability": "nonpayable",
      "type": "constructor"
    },
    {
      "payable": true,
      "stateMutability": "payable",
      "type": "fallback"
    },
    {
      "anonymous": false,
      "inputs": [
        {
          "indexed": true,
          "name": "player",
          "type": "address"
        },
        {
          "indexed": false,
          "name": "qid",
          "type": "bytes32"
        },
        {
          "indexed": false,
          "name": "betSize",
          "type": "uint256"
        },
        {
          "indexed": false,
          "name": "betNumber",
          "type": "uint8"
        }
      ],
      "name": "Bet",
      "type": "event"
    },
    {
      "anonymous": false,
      "inputs": [
        {
          "indexed": true,
          "name": "player",
          "type": "address"
        },
        {
          "indexed": false,
          "name": "qid",
          "type": "bytes32"
        },
        {
          "indexed": false,
          "name": "betSize",
          "type": "uint256"
        },
        {
          "indexed": false,
          "name": "betNumber",
          "type": "uint8"
        },
        {
          "indexed": false,
          "name": "winningNumber",
          "type": "uint8"
        }
      ],
      "name": "Play",
      "type": "event"
    },
    {
      "anonymous": false,
      "inputs": [
        {
          "indexed": true,
          "name": "winner",
          "type": "address"
        },
        {
          "indexed": false,
          "name": "qid",
          "type": "bytes32"
        },
        {
          "indexed": false,
          "name": "payout",
          "type": "uint256"
        }
      ],
      "name": "Payout",
      "type": "event"
    },
    {
      "anonymous": false,
      "inputs": [],
      "name": "Pause",
      "type": "event"
    },
    {
      "anonymous": false,
      "inputs": [],
      "name": "Unpause",
      "type": "event"
    },
    {
      "anonymous": false,
      "inputs": [
        {
          "indexed": true,
          "name": "previousOwner",
          "type": "address"
        }
      ],
      "name": "OwnershipRenounced",
      "type": "event"
    },
    {
      "anonymous": false,
      "inputs": [
        {
          "indexed": true,
          "name": "previousOwner",
          "type": "address"
        },
        {
          "indexed": true,
          "name": "newOwner",
          "type": "address"
        }
      ],
      "name": "OwnershipTransferred",
      "type": "event"
    },
    {
      "constant": false,
      "inputs": [
        {
          "name": "number",
          "type": "uint8"
        }
      ],
      "name": "bet",
      "outputs": [],
      "payable": true,
      "stateMutability": "payable",
      "type": "function"
    },
    {
      "constant": false,
      "inputs": [
        {
          "name": "qid",
          "type": "bytes32"
        },
        {
          "name": "result",
          "type": "string"
        }
      ],
      "name": "__callback",
      "outputs": [],
      "payable": false,
      "stateMutability": "nonpayable",
      "type": "function"
    },
    {
      "constant": false,
      "inputs": [
        {
          "name": "myid",
          "type": "bytes32"
        },
        {
          "name": "result",
          "type": "string"
        },
        {
          "name": "proof",
          "type": "bytes"
        }
      ],
      "name": "__callback",
      "outputs": [],
      "payable": false,
      "stateMutability": "nonpayable",
      "type": "function"
    },
    {
      "constant": true,
      "inputs": [],
      "name": "maxBet",
      "outputs": [
        {
          "name": "",
          "type": "uint256"
        }
      ],
      "payable": false,
      "stateMutability": "view",
      "type": "function"
    },
    {
      "constant": true,
      "inputs": [],
      "name": "oraclizeFeeEstimate",
      "outputs": [
        {
          "name": "",
          "type": "uint256"
        }
      ],
      "payable": false,
      "stateMutability": "pure",
      "type": "function"
    }
  ],
  "bytecode": "0x60806040526000600560146101000a81548160ff02191690831515021790555034801561002b57600080fd5b50604051602080612de0833981018060405281019080805190602001909291905050508033600560006101000a81548173ffffffffffffffffffffffffffffffffffffffff021916908373ffffffffffffffffffffffffffffffffffffffff16021790555080600660006101000a81548173ffffffffffffffffffffffffffffffffffffffff021916908373ffffffffffffffffffffffffffffffffffffffff160217905550600660009054906101000a900473ffffffffffffffffffffffffffffffffffffffff1673ffffffffffffffffffffffffffffffffffffffff1663d63fedc5306040518263ffffffff167c0100000000000000000000000000000000000000000000000000000000028152600401808273ffffffffffffffffffffffffffffffffffffffff1673ffffffffffffffffffffffffffffffffffffffff168152602001915050600060405180830381600087803b15801561018e57600080fd5b505af11580156101a2573d6000803e3d6000fd5b5050505050736f485c8bf6fc43ea212e93bbf8ce046c7f1cb4756000806101000a81548173ffffffffffffffffffffffffffffffffffffffff021916908373ffffffffffffffffffffffffffffffffffffffff16021790555050612bd58061020b6000396000f3006080604052600436106100db576000357c0100000000000000000000000000000000000000000000000000000000900463ffffffff16806327dc297e146100f85780632e1a7d4d1461016f5780632e5b21681461019c57806338bbfa50146101c75780633f4ba83a146102845780635c975abb1461029b578063715018a6146102ca5780638456cb59146102e15780638da5cb5b146102f85780638e6b523e1461034f5780639a26c0c4146103a6578063d0821b0e146103d1578063d0e30db0146103f4578063ea3f73ad146103fe578063f2fde38b14610429575b6100f03460075461046c90919063ffffffff16565b600781905550005b34801561010457600080fd5b5061016d6004803603810190808035600019169060200190929190803590602001908201803590602001908080601f0160208091040260200160405190810160405280939291908181526020018383808284378201915050505050509192919290505050610488565b005b34801561017b57600080fd5b5061019a60048036038101908080359060200190929190505050610805565b005b3480156101a857600080fd5b506101b1610b02565b6040518082815260200191505060405180910390f35b3480156101d357600080fd5b506102826004803603810190808035600019169060200190929190803590602001908201803590602001908080601f0160208091040260200160405190810160405280939291908181526020018383808284378201915050505050509192919290803590602001908201803590602001908080601f0160208091040260200160405190810160405280939291908181526020018383808284378201915050505050509192919290505050610b28565b005b34801561029057600080fd5b50610299610b2d565b005b3480156102a757600080fd5b506102b0610bed565b604051808215151515815260200191505060405180910390f35b3480156102d657600080fd5b506102df610c00565b005b3480156102ed57600080fd5b506102f6610d05565b005b34801561030457600080fd5b5061030d610dc6565b604051808273ffffffffffffffffffffffffffffffffffffffff1673ffffffffffffffffffffffffffffffffffffffff16815260200191505060405180910390f35b34801561035b57600080fd5b50610364610dec565b604051808273ffffffffffffffffffffffffffffffffffffffff1673ffffffffffffffffffffffffffffffffffffffff16815260200191505060405180910390f35b3480156103b257600080fd5b506103bb610e12565b6040518082815260200191505060405180910390f35b6103f2600480360381019080803560ff169060200190929190505050610e18565b005b6103fc61116d565b005b34801561040a57600080fd5b50610413611275565b6040518082815260200191505060405180910390f35b34801561043557600080fd5b5061046a600480360381019080803573ffffffffffffffffffffffffffffffffffffffff169060200190929190505050611284565b005b6000818301905082811015151561047f57fe5b80905092915050565b6000806104936112ec565b73ffffffffffffffffffffffffffffffffffffffff163373ffffffffffffffffffffffffffffffffffffffff1614151561055b576040517f08c379a00000000000000000000000000000000000000000000000000000000081526004018080602001828103825260318152602001807f43616e206f6e6c792062652063616c6c65642066726f6d206f7261636c697a6581526020017f2063616c6c6261636b206164647265737300000000000000000000000000000081525060400191505060405180910390fd5b600073ffffffffffffffffffffffffffffffffffffffff1660086000866000191660001916815260200190815260200160002060000160009054906101000a900473ffffffffffffffffffffffffffffffffffffffff1673ffffffffffffffffffffffffffffffffffffffff161415151561063e576040517f08c379a00000000000000000000000000000000000000000000000000000000081526004018080602001828103825260208152602001807f5175657279206e6565647320616e206173736f63696174656420706c6179657281525060200191505060405180910390fd5b6106478361164a565b915060086000856000191660001916815260200190815260200160002090508060000160009054906101000a900473ffffffffffffffffffffffffffffffffffffffff1673ffffffffffffffffffffffffffffffffffffffff167f91be5b5d42b869d0275147918e4b559f9d2d696bc711937642c9363242ef11008583600101548460020160009054906101000a900460ff16866040518085600019166000191681526020018481526020018360ff1660ff1681526020018260ff1660ff16815260200194505050505060405180910390a2610732816001015460075461046c90919063ffffffff16565b6007819055508160ff168160020160009054906101000a900460ff1660ff16141561079e5761079d8160000160009054906101000a900473ffffffffffffffffffffffffffffffffffffffff16856107986024856001015461165e90919063ffffffff16565b611696565b5b600860008560001916600019168152602001908152602001600020600080820160006101000a81549073ffffffffffffffffffffffffffffffffffffffff021916905560018201600090556002820160006101000a81549060ff0219169055505050505050565b600660009054906101000a900473ffffffffffffffffffffffffffffffffffffffff1673ffffffffffffffffffffffffffffffffffffffff163373ffffffffffffffffffffffffffffffffffffffff161415156108f0576040517f08c379a000000000000000000000000000000000000000000000000000000000815260040180806020018281038252602f8152602001807f43616e206f6e6c792062652063616c6c656420627920746865206261636b656481526020017f20746f6b656e20636f6e7472616374000000000000000000000000000000000081525060400191505060405180910390fd5b3073ffffffffffffffffffffffffffffffffffffffff163181111515156109a5576040517f08c379a00000000000000000000000000000000000000000000000000000000081526004018080602001828103825260228152602001807f43616e206e6f74207769746864726177206d6f7265207468616e2062616c616e81526020017f636500000000000000000000000000000000000000000000000000000000000081525060400191505060405180910390fd5b6007548111151515610a45576040517f08c379a000000000000000000000000000000000000000000000000000000000815260040180806020018281038252602e8152602001807f43616e206e6f74207769746864726177206d6f7265207468616e2062616c616e81526020017f636520666f72206261636b696e6700000000000000000000000000000000000081525060400191505060405180910390fd5b610a5a816007546118ae90919063ffffffff16565b600781905550600660009054906101000a900473ffffffffffffffffffffffffffffffffffffffff1673ffffffffffffffffffffffffffffffffffffffff1663d0e30db0826040518263ffffffff167c01000000000000000000000000000000000000000000000000000000000281526004016000604051808303818588803b158015610ae657600080fd5b505af1158015610afa573d6000803e3d6000fd5b505050505050565b6000610b0c611275565b610b2260c86007546118c790919063ffffffff16565b01905090565b505050565b600560009054906101000a900473ffffffffffffffffffffffffffffffffffffffff1673ffffffffffffffffffffffffffffffffffffffff163373ffffffffffffffffffffffffffffffffffffffff16141515610b8957600080fd5b600560149054906101000a900460ff161515610ba457600080fd5b6000600560146101000a81548160ff0219169083151502179055507f7805862f689e2f13df9f062ff482ad3ad112aca9e0847911ed832e158c525b3360405160405180910390a1565b600560149054906101000a900460ff1681565b600560009054906101000a900473ffffffffffffffffffffffffffffffffffffffff1673ffffffffffffffffffffffffffffffffffffffff163373ffffffffffffffffffffffffffffffffffffffff16141515610c5c57600080fd5b600560009054906101000a900473ffffffffffffffffffffffffffffffffffffffff1673ffffffffffffffffffffffffffffffffffffffff167ff8df31144d9c2f0f6b59d69b8b98abd5459d07f2742c4df920b25aae33c6482060405160405180910390a26000600560006101000a81548173ffffffffffffffffffffffffffffffffffffffff021916908373ffffffffffffffffffffffffffffffffffffffff160217905550565b600560009054906101000a900473ffffffffffffffffffffffffffffffffffffffff1673ffffffffffffffffffffffffffffffffffffffff163373ffffffffffffffffffffffffffffffffffffffff16141515610d6157600080fd5b600560149054906101000a900460ff16151515610d7d57600080fd5b6001600560146101000a81548160ff0219169083151502179055507f6985a02210a168e66602d3235cb6db0e70f92b3ba4d376a33c0f3d9434bff62560405160405180910390a1565b600560009054906101000a900473ffffffffffffffffffffffffffffffffffffffff1681565b600660009054906101000a900473ffffffffffffffffffffffffffffffffffffffff1681565b60075481565b6000806000600560149054906101000a900460ff16151515610e3957600080fd5b610e41610b02565b3411151515610ede576040517f08c379a00000000000000000000000000000000000000000000000000000000081526004018080602001828103825260268152602001807f42657420616d6f756e742063616e206e6f7420657863656564206d617820626581526020017f742073697a65000000000000000000000000000000000000000000000000000081525060400191505060405180910390fd5b610f1c6040805190810160405280600c81526020017f576f6c6672616d416c70686100000000000000000000000000000000000000008152506118dd565b92508234111515610fbb576040517f08c379a000000000000000000000000000000000000000000000000000000000815260040180806020018281038252602d8152602001807f42657420616d6f756e742073686f756c6420626520686967686572207468616e81526020017f206f7261636c697a65206665650000000000000000000000000000000000000081525060400191505060405180910390fd5b82340391506110346040805190810160405280600c81526020017f576f6c6672616d416c70686100000000000000000000000000000000000000008152506040805190810160405280601f81526020017f72616e646f6d20696e7465676572206265747765656e203020616e6420333600815250611cad565b90506060604051908101604052803373ffffffffffffffffffffffffffffffffffffffff1681526020018381526020018560ff1681525060086000836000191660001916815260200190815260200160002060008201518160000160006101000a81548173ffffffffffffffffffffffffffffffffffffffff021916908373ffffffffffffffffffffffffffffffffffffffff1602179055506020820151816001015560408201518160020160006101000a81548160ff021916908360ff1602179055509050503373ffffffffffffffffffffffffffffffffffffffff167f214ae1d1aa57aeaec2e90ff231808911a5a626a3c6bc242503a829db732011ce8284876040518084600019166000191681526020018381526020018260ff1660ff168152602001935050505060405180910390a250505050565b600660009054906101000a900473ffffffffffffffffffffffffffffffffffffffff1673ffffffffffffffffffffffffffffffffffffffff163373ffffffffffffffffffffffffffffffffffffffff16141515611258576040517f08c379a000000000000000000000000000000000000000000000000000000000815260040180806020018281038252602f8152602001807f43616e206f6e6c792062652063616c6c656420627920746865206261636b656481526020017f20746f6b656e20636f6e7472616374000000000000000000000000000000000081525060400191505060405180910390fd5b61126d3460075461046c90919063ffffffff16565b600781905550565b6000660e35fa931a0000905090565b600560009054906101000a900473ffffffffffffffffffffffffffffffffffffffff1673ffffffffffffffffffffffffffffffffffffffff163373ffffffffffffffffffffffffffffffffffffffff161415156112e057600080fd5b6112e98161224f565b50565b6000806000809054906101000a900473ffffffffffffffffffffffffffffffffffffffff1673ffffffffffffffffffffffffffffffffffffffff16148061135c5750600061135a6000809054906101000a900473ffffffffffffffffffffffffffffffffffffffff1661234b565b145b1561136d5761136b6000612356565b505b6000809054906101000a900473ffffffffffffffffffffffffffffffffffffffff1673ffffffffffffffffffffffffffffffffffffffff166338cc48316040518163ffffffff167c0100000000000000000000000000000000000000000000000000000000028152600401602060405180830381600087803b1580156113f257600080fd5b505af1158015611406573d6000803e3d6000fd5b505050506040513d602081101561141c57600080fd5b810190808051906020019092919050505073ffffffffffffffffffffffffffffffffffffffff16600160009054906101000a900473ffffffffffffffffffffffffffffffffffffffff1673ffffffffffffffffffffffffffffffffffffffff16141515611584576000809054906101000a900473ffffffffffffffffffffffffffffffffffffffff1673ffffffffffffffffffffffffffffffffffffffff166338cc48316040518163ffffffff167c0100000000000000000000000000000000000000000000000000000000028152600401602060405180830381600087803b15801561150857600080fd5b505af115801561151c573d6000803e3d6000fd5b505050506040513d602081101561153257600080fd5b8101908080519060200190929190505050600160006101000a81548173ffffffffffffffffffffffffffffffffffffffff021916908373ffffffffffffffffffffffffffffffffffffffff1602179055505b600160009054906101000a900473ffffffffffffffffffffffffffffffffffffffff1673ffffffffffffffffffffffffffffffffffffffff1663c281d19e6040518163ffffffff167c0100000000000000000000000000000000000000000000000000000000028152600401602060405180830381600087803b15801561160a57600080fd5b505af115801561161e573d6000803e3d6000fd5b505050506040513d602081101561163457600080fd5b8101908080519060200190929190505050905090565b6000611657826000612367565b9050919050565b6000808314156116715760009050611690565b818302905081838281151561168257fe5b0414151561168c57fe5b8090505b92915050565b600081111515611734576040517f08c379a00000000000000000000000000000000000000000000000000000000081526004018080602001828103825260238152602001807f5061796f757420616d6f756e742073686f756c64206265206d6f72652074686181526020017f6e2030000000000000000000000000000000000000000000000000000000000081525060400191505060405180910390fd5b3073ffffffffffffffffffffffffffffffffffffffff163181111515156117e9576040517f08c379a00000000000000000000000000000000000000000000000000000000081526004018080602001828103825260368152602001807f5061796f757420616d6f756e742073686f756c64206e6f74206265206d6f726581526020017f207468616e20636f6e74726163742062616c616e63650000000000000000000081525060400191505060405180910390fd5b6117fe816007546118ae90919063ffffffff16565b6007819055508273ffffffffffffffffffffffffffffffffffffffff166108fc829081150290604051600060405180830381858888f1935050505015801561184a573d6000803e3d6000fd5b508273ffffffffffffffffffffffffffffffffffffffff167f212950d8b6a2784adeaa8e088d070610bdfab9eaef5a7127d90118ec1cf34a6183836040518083600019166000191681526020018281526020019250505060405180910390a2505050565b60008282111515156118bc57fe5b818303905092915050565b600081838115156118d457fe5b04905092915050565b6000806000809054906101000a900473ffffffffffffffffffffffffffffffffffffffff1673ffffffffffffffffffffffffffffffffffffffff16148061194d5750600061194b6000809054906101000a900473ffffffffffffffffffffffffffffffffffffffff1661234b565b145b1561195e5761195c6000612356565b505b6000809054906101000a900473ffffffffffffffffffffffffffffffffffffffff1673ffffffffffffffffffffffffffffffffffffffff166338cc48316040518163ffffffff167c0100000000000000000000000000000000000000000000000000000000028152600401602060405180830381600087803b1580156119e357600080fd5b505af11580156119f7573d6000803e3d6000fd5b505050506040513d6020811015611a0d57600080fd5b810190808051906020019092919050505073ffffffffffffffffffffffffffffffffffffffff16600160009054906101000a900473ffffffffffffffffffffffffffffffffffffffff1673ffffffffffffffffffffffffffffffffffffffff16141515611b75576000809054906101000a900473ffffffffffffffffffffffffffffffffffffffff1673ffffffffffffffffffffffffffffffffffffffff166338cc48316040518163ffffffff167c0100000000000000000000000000000000000000000000000000000000028152600401602060405180830381600087803b158015611af957600080fd5b505af1158015611b0d573d6000803e3d6000fd5b505050506040513d6020811015611b2357600080fd5b8101908080519060200190929190505050600160006101000a81548173ffffffffffffffffffffffffffffffffffffffff021916908373ffffffffffffffffffffffffffffffffffffffff1602179055505b600160009054906101000a900473ffffffffffffffffffffffffffffffffffffffff1673ffffffffffffffffffffffffffffffffffffffff1663524f3889836040518263ffffffff167c01000000000000000000000000000000000000000000000000000000000281526004018080602001828103825283818151815260200191508051906020019080838360005b83811015611c1f578082015181840152602081019050611c04565b50505050905090810190601f168015611c4c5780820380516001836020036101000a031916815260200191505b5092505050602060405180830381600087803b158015611c6b57600080fd5b505af1158015611c7f573d6000803e3d6000fd5b505050506040513d6020811015611c9557600080fd5b81019080805190602001909291905050509050919050565b60008060008060009054906101000a900473ffffffffffffffffffffffffffffffffffffffff1673ffffffffffffffffffffffffffffffffffffffff161480611d1f57506000611d1d6000809054906101000a900473ffffffffffffffffffffffffffffffffffffffff1661234b565b145b15611d3057611d2e6000612356565b505b6000809054906101000a900473ffffffffffffffffffffffffffffffffffffffff1673ffffffffffffffffffffffffffffffffffffffff166338cc48316040518163ffffffff167c0100000000000000000000000000000000000000000000000000000000028152600401602060405180830381600087803b158015611db557600080fd5b505af1158015611dc9573d6000803e3d6000fd5b505050506040513d6020811015611ddf57600080fd5b810190808051906020019092919050505073ffffffffffffffffffffffffffffffffffffffff16600160009054906101000a900473ffffffffffffffffffffffffffffffffffffffff1673ffffffffffffffffffffffffffffffffffffffff16141515611f47576000809054906101000a900473ffffffffffffffffffffffffffffffffffffffff1673ffffffffffffffffffffffffffffffffffffffff166338cc48316040518163ffffffff167c0100000000000000000000000000000000000000000000000000000000028152600401602060405180830381600087803b158015611ecb57600080fd5b505af1158015611edf573d6000803e3d6000fd5b505050506040513d6020811015611ef557600080fd5b8101908080519060200190929190505050600160006101000a81548173ffffffffffffffffffffffffffffffffffffffff021916908373ffffffffffffffffffffffffffffffffffffffff1602179055505b600160009054906101000a900473ffffffffffffffffffffffffffffffffffffffff1673ffffffffffffffffffffffffffffffffffffffff1663524f3889856040518263ffffffff167c01000000000000000000000000000000000000000000000000000000000281526004018080602001828103825283818151815260200191508051906020019080838360005b83811015611ff1578082015181840152602081019050611fd6565b50505050905090810190601f16801561201e5780820380516001836020036101000a031916815260200191505b5092505050602060405180830381600087803b15801561203d57600080fd5b505af1158015612051573d6000803e3d6000fd5b505050506040513d602081101561206757600080fd5b8101908080519060200190929190505050905062030d403a02670de0b6b3a76400000181111561209d5760006001029150612248565b600160009054906101000a900473ffffffffffffffffffffffffffffffffffffffff1673ffffffffffffffffffffffffffffffffffffffff1663adf59f9982600087876040518563ffffffff167c0100000000000000000000000000000000000000000000000000000000028152600401808481526020018060200180602001838103835285818151815260200191508051906020019080838360005b8381101561215557808201518184015260208101905061213a565b50505050905090810190601f1680156121825780820380516001836020036101000a031916815260200191505b50838103825284818151815260200191508051906020019080838360005b838110156121bb5780820151818401526020810190506121a0565b50505050905090810190601f1680156121e85780820380516001836020036101000a031916815260200191505b50955050505050506020604051808303818588803b15801561220957600080fd5b505af115801561221d573d6000803e3d6000fd5b50505050506040513d602081101561223457600080fd5b810190808051906020019092919050505091505b5092915050565b600073ffffffffffffffffffffffffffffffffffffffff168173ffffffffffffffffffffffffffffffffffffffff161415151561228b57600080fd5b8073ffffffffffffffffffffffffffffffffffffffff16600560009054906101000a900473ffffffffffffffffffffffffffffffffffffffff1673ffffffffffffffffffffffffffffffffffffffff167f8be0079c531659141344cd1fd0a4f28419497f9722a3daafe3b4186f6b6457e060405160405180910390a380600560006101000a81548173ffffffffffffffffffffffffffffffffffffffff021916908373ffffffffffffffffffffffffffffffffffffffff16021790555050565b6000813b9050919050565b600061236061265b565b9050919050565b6000606060008060008693506000925060009150600090505b835181101561263c5760307f01000000000000000000000000000000000000000000000000000000000000000284828151811015156123bb57fe5b9060200101517f010000000000000000000000000000000000000000000000000000000000000090047f0100000000000000000000000000000000000000000000000000000000000000027effffffffffffffffffffffffffffffffffffffffffffffffffffffffffffff1916101580156124d3575060397f010000000000000000000000000000000000000000000000000000000000000002848281518110151561246357fe5b9060200101517f010000000000000000000000000000000000000000000000000000000000000090047f0100000000000000000000000000000000000000000000000000000000000000027effffffffffffffffffffffffffffffffffffffffffffffffffffffffffffff191611155b156125845781156124f65760008614156124ec5761263c565b8580600190039650505b600a830292506030848281518110151561250c57fe5b9060200101517f010000000000000000000000000000000000000000000000000000000000000090047f0100000000000000000000000000000000000000000000000000000000000000027f01000000000000000000000000000000000000000000000000000000000000009004038301925061262f565b602e7f01000000000000000000000000000000000000000000000000000000000000000284828151811015156125b657fe5b9060200101517f010000000000000000000000000000000000000000000000000000000000000090047f0100000000000000000000000000000000000000000000000000000000000000027effffffffffffffffffffffffffffffffffffffffffffffffffffffffffffff1916141561262e57600191505b5b8080600101915050612380565b600086111561264e5785600a0a830292505b8294505050505092915050565b60008061267b731d3b2638a7cc9f2cb3d298a3da7a90b67e5506ed61234b565b111561271c57731d3b2638a7cc9f2cb3d298a3da7a90b67e5506ed6000806101000a81548173ffffffffffffffffffffffffffffffffffffffff021916908373ffffffffffffffffffffffffffffffffffffffff1602179055506127136040805190810160405280600b81526020017f6574685f6d61696e6e6574000000000000000000000000000000000000000000815250612aea565b60019050612ae7565b600061273b73c03a2615d5efaf5f49f60b7bb6583eaec212fdf161234b565b11156127dc5773c03a2615d5efaf5f49f60b7bb6583eaec212fdf16000806101000a81548173ffffffffffffffffffffffffffffffffffffffff021916908373ffffffffffffffffffffffffffffffffffffffff1602179055506127d36040805190810160405280600c81526020017f6574685f726f707374656e330000000000000000000000000000000000000000815250612aea565b60019050612ae7565b60006127fb73b7a07bcf2ba2f2703b24c0691b5278999c59ac7e61234b565b111561289c5773b7a07bcf2ba2f2703b24c0691b5278999c59ac7e6000806101000a81548173ffffffffffffffffffffffffffffffffffffffff021916908373ffffffffffffffffffffffffffffffffffffffff1602179055506128936040805190810160405280600981526020017f6574685f6b6f76616e0000000000000000000000000000000000000000000000815250612aea565b60019050612ae7565b60006128bb73146500cfd35b22e4a392fe0adc06de1a1368ed4861234b565b111561295c5773146500cfd35b22e4a392fe0adc06de1a1368ed486000806101000a81548173ffffffffffffffffffffffffffffffffffffffff021916908373ffffffffffffffffffffffffffffffffffffffff1602179055506129536040805190810160405280600b81526020017f6574685f72696e6b656279000000000000000000000000000000000000000000815250612aea565b60019050612ae7565b600061297b736f485c8bf6fc43ea212e93bbf8ce046c7f1cb47561234b565b11156129de57736f485c8bf6fc43ea212e93bbf8ce046c7f1cb4756000806101000a81548173ffffffffffffffffffffffffffffffffffffffff021916908373ffffffffffffffffffffffffffffffffffffffff16021790555060019050612ae7565b60006129fd7320e12a1f859b3feae5fb2a0a32c18f5a65555bbf61234b565b1115612a60577320e12a1f859b3feae5fb2a0a32c18f5a65555bbf6000806101000a81548173ffffffffffffffffffffffffffffffffffffffff021916908373ffffffffffffffffffffffffffffffffffffffff16021790555060019050612ae7565b6000612a7f7351efaf4c8b3c9afbd5ab9f4bbc82784ab6ef8faa61234b565b1115612ae2577351efaf4c8b3c9afbd5ab9f4bbc82784ab6ef8faa6000806101000a81548173ffffffffffffffffffffffffffffffffffffffff021916908373ffffffffffffffffffffffffffffffffffffffff16021790555060019050612ae7565b600090505b90565b8060029080519060200190612b00929190612b04565b5050565b828054600181600116156101000203166002900490600052602060002090601f016020900481019282601f10612b4557805160ff1916838001178555612b73565b82800160010185558215612b73579182015b82811115612b72578251825591602001919060010190612b57565b5b509050612b809190612b84565b5090565b612ba691905b80821115612ba2576000816000905550600101612b8a565b5090565b905600a165627a7a72305820639b79c5e355cd9c67c6ce89151a3867fc352aa87d8ccff04b368829bbcaa79f0029",
  "source": "pragma solidity ^0.4.24;\n\nimport \"./BackingContract.sol\";\nimport \"oraclize-api/contracts/usingOraclize.sol\";\nimport \"openzeppelin-solidity/contracts/lifecycle/Pausable.sol\";\n\n/**\n * @title Roulette\n * @author Rosco Kalis <roscokalis@gmail.com>\n */\ncontract Roulette is usingOraclize, Pausable, BackingContract {\n    struct PlayerInfo {\n        address player;\n        uint256 betSize;\n        uint8 betNumber;\n    }\n\n    mapping(bytes32=>PlayerInfo) players;\n\n    event Bet(address indexed player, bytes32 qid, uint256 betSize, uint8 betNumber);\n    event Play(address indexed player, bytes32 qid, uint256 betSize, uint8 betNumber, uint8 winningNumber);\n    event Payout(address indexed winner, bytes32 qid, uint256 payout);\n\n    constructor(address roscoinAddress) BackingContract(roscoinAddress) public {\n        // Set OAR for use with ethereum-bridge, remove for production\n        OAR = OraclizeAddrResolverI(0x6f485C8BF6fc43eA212E93BBF8ce046C7f1cb475);\n    }\n\n    /**\n     * @notice Bets an amount of eth on a specific number.\n     * @dev Updates token price according to value change.\n     * @dev Stores the player info in `players` mapping so it can be retrieved in `__callback()`.\n     * @dev Emits Bet event.\n     * @param number The number that is bet on.\n     */\n    function bet(uint8 number) external payable whenNotPaused {\n        require(msg.value <= maxBet(), \"Bet amount can not exceed max bet size\");\n\n        uint256 oraclizeFee = oraclize_getPrice(\"WolframAlpha\");\n        require(msg.value > oraclizeFee, \"Bet amount should be higher than oraclize fee\");\n\n        uint256 betValue = msg.value - oraclizeFee;\n\n        bytes32 qid = oraclize_query(\"WolframAlpha\", \"random integer between 0 and 36\");\n\n        /* Store a player's info to retrieve it in the oraclize callback */\n        players[qid] = PlayerInfo(msg.sender, betValue, number);\n        emit Bet(msg.sender, qid, betValue, number);\n    }\n\n    /**\n     * @notice Callback function for Oraclize, checks if the player won the bet, and payd out if they did.\n     * @dev Uses the `players` mapping to retrieve a player's information, deletes the player information afterwards.\n     * @dev Emits Play event.\n     * @param qid The query id of the corresponding Oraclize query.\n     * @param result The result of the Oraclize query.\n     */\n    function __callback(bytes32 qid, string result) public {\n        require(msg.sender == oraclize_cbAddress(), \"Can only be called from oraclize callback address\");\n        require(players[qid].player != address(0), \"Query needs an associated player\");\n\n        uint8 winningNumber = uint8(parseInt(result));\n        PlayerInfo storage playerInfo = players[qid];\n\n        emit Play(playerInfo.player, qid, playerInfo.betSize, playerInfo.betNumber, winningNumber);\n        balanceForBacking = balanceForBacking.add(playerInfo.betSize);\n\n        if (playerInfo.betNumber == winningNumber) {\n            payout(playerInfo.player, qid, playerInfo.betSize.mul(36));\n        }\n\n        // TODO: Perhaps delete this info before sending payout (reentrancy)\n        delete players[qid];\n    }\n\n    /**\n     * @notice Pays out an amount of eth to a bet winner.\n     * @dev Updates token price according to value change.\n     * @dev Emits Payout event.\n     * @param winner The account of the bet winner.\n     * @param qid The game for which the payout is made\n     * @param amount The amount to be paid out to the bet winner.\n     */\n    function payout(address winner, bytes32 qid, uint256 amount) internal {\n        require(amount > 0, \"Payout amount should be more than 0\");\n        require(amount <= address(this).balance, \"Payout amount should not be more than contract balance\");\n\n        balanceForBacking = balanceForBacking.sub(amount);\n        winner.transfer(amount);\n        emit Payout(winner, qid, amount);\n    }\n\n    /**\n     * @notice Returns the maximum bet (0.5% of balance) for this contract.\n     * @dev Based on empirical statistics (see docs/max_bet_size.md).\n     * @return The maximum bet.\n     */\n    function maxBet() public view returns (uint256) {\n        return balanceForBacking.div(200) + oraclizeFeeEstimate();\n    }\n\n    /**\n     * @notice Returns an estimate of the oraclize fee.\n     * @return An estimate of the oraclize fee.\n     */\n    function oraclizeFeeEstimate() public pure returns (uint256) {\n        return 0.004 ether;\n    }\n}\n",
  "sourcePath": "/Users/rosco/repos/personal/ethroulette/contracts/Roulette.sol",
  "compiler": {
    "name": "solc",
    "version": "0.4.24+commit.e67f0147.Emscripten.clang"
  },
  "schemaVersion": "2.0.1",
  "updatedAt": "2018-10-02T12:42:20.700Z"
}